{
  "_format": "hh-sol-artifact-1",
  "contractName": "GatewayERC20",
  "sourceName": "contracts/ethereum/gatewayERC20/GatewayERC20.sol",
  "abi": [
    {
      "inputs": [
        {
          "internalType": "address",
          "name": "_starknetCore",
          "type": "address"
        }
      ],
      "stateMutability": "nonpayable",
      "type": "constructor"
    },
    {
      "inputs": [
        {
          "internalType": "contract IERC20",
          "name": "_l1TokenContract",
          "type": "address"
        },
        {
          "internalType": "uint256",
          "name": "_l2TokenContract",
          "type": "uint256"
        },
        {
          "internalType": "uint256",
          "name": "_amount",
          "type": "uint256"
        }
      ],
      "name": "bridgeFromStarknet",
      "outputs": [],
      "stateMutability": "nonpayable",
      "type": "function"
    },
    {
      "inputs": [
        {
          "internalType": "contract IERC20",
          "name": "_l1TokenContract",
          "type": "address"
        },
        {
          "internalType": "uint256",
          "name": "_l2TokenContract",
          "type": "uint256"
        },
        {
          "internalType": "uint256",
          "name": "_amount",
          "type": "uint256"
        },
        {
          "internalType": "uint256",
          "name": "_account",
          "type": "uint256"
        }
      ],
      "name": "bridgeToStarknet",
      "outputs": [],
      "stateMutability": "nonpayable",
      "type": "function"
    },
    {
      "inputs": [],
      "name": "endpointGateway",
      "outputs": [
        {
          "internalType": "uint256",
          "name": "",
          "type": "uint256"
        }
      ],
      "stateMutability": "view",
      "type": "function"
    },
    {
      "inputs": [],
      "name": "initialEndpointGatewaySetter",
      "outputs": [
        {
          "internalType": "address",
          "name": "",
          "type": "address"
        }
      ],
      "stateMutability": "view",
      "type": "function"
    },
    {
      "inputs": [
        {
          "internalType": "uint256",
          "name": "_endpointGateway",
          "type": "uint256"
        }
      ],
      "name": "setEndpointGateway",
      "outputs": [],
      "stateMutability": "nonpayable",
      "type": "function"
    },
    {
      "inputs": [],
      "name": "starknetCore",
      "outputs": [
        {
          "internalType": "contract IStarknetCore",
          "name": "",
          "type": "address"
        }
      ],
      "stateMutability": "view",
      "type": "function"
    }
  ],
  "bytecode": "0x60806040523480156200001157600080fd5b5060405162000fdd38038062000fdd83398181016040528101906200003791906200019c565b600073ffffffffffffffffffffffffffffffffffffffff168173ffffffffffffffffffffffffffffffffffffffff161415620000aa576040517f08c379a0000000000000000000000000000000000000000000000000000000008152600401620000a19062000255565b60405180910390fd5b80600260006101000a81548173ffffffffffffffffffffffffffffffffffffffff021916908373ffffffffffffffffffffffffffffffffffffffff160217905550336000806101000a81548173ffffffffffffffffffffffffffffffffffffffff021916908373ffffffffffffffffffffffffffffffffffffffff1602179055505062000277565b600080fd5b600073ffffffffffffffffffffffffffffffffffffffff82169050919050565b6000620001648262000137565b9050919050565b620001768162000157565b81146200018257600080fd5b50565b60008151905062000196816200016b565b92915050565b600060208284031215620001b557620001b462000132565b5b6000620001c58482850162000185565b91505092915050565b600082825260208201905092915050565b7f476174657761792f696e76616c69642d737461726b6e65742d636f72652d616460008201527f6472657373000000000000000000000000000000000000000000000000000000602082015250565b60006200023d602583620001ce565b91506200024a82620001df565b604082019050919050565b6000602082019050818103600083015262000270816200022e565b9050919050565b610d5680620002876000396000f3fe608060405234801561001057600080fd5b50600436106100625760003560e01c806339e730ab1461006757806341b3a0a11461008557806366fbae52146100a35780636d54e972146100bf578063aa5afdc4146100db578063c5cf2d5e146100f7575b600080fd5b61006f610115565b60405161007c919061079e565b60405180910390f35b61008d61013b565b60405161009a91906107d2565b60405180910390f35b6100bd60048036038101906100b8919061086e565b610141565b005b6100d960048036038101906100d491906108c1565b6103a3565b005b6100f560048036038101906100f09190610928565b6105fe565b005b6100ff6106db565b60405161010c9190610964565b60405180910390f35b600260009054906101000a900473ffffffffffffffffffffffffffffffffffffffff1681565b60015481565b6000600567ffffffffffffffff81111561015e5761015d61097f565b5b60405190808252806020026020018201604052801561018c5781602001602082028036833780820191505090505b509050600060015414156101d5576040517f08c379a00000000000000000000000000000000000000000000000000000000081526004016101cc90610a0b565b60405180910390fd5b6001816000815181106101eb576101ea610a2b565b5b602002602001018181525050610200336106ff565b8160018151811061021457610213610a2b565b5b602002602001018181525050610229846106ff565b8160028151811061023d5761023c610a2b565b5b602002602001018181525050828160038151811061025e5761025d610a2b565b5b602002602001018181525050818160048151811061027f5761027e610a2b565b5b602002602001018181525050600260009054906101000a900473ffffffffffffffffffffffffffffffffffffffff1673ffffffffffffffffffffffffffffffffffffffff16632c9dd5c0600154836040518363ffffffff1660e01b81526004016102ea929190610b18565b600060405180830381600087803b15801561030457600080fd5b505af1158015610318573d6000803e3d6000fd5b505050508373ffffffffffffffffffffffffffffffffffffffff166323b872dd3033856040518463ffffffff1660e01b815260040161035993929190610b48565b6020604051808303816000875af1158015610378573d6000803e3d6000fd5b505050506040513d601f19601f8201168201806040525081019061039c9190610bb7565b5050505050565b6000600467ffffffffffffffff8111156103c0576103bf61097f565b5b6040519080825280602002602001820160405280156103ee5781602001602082028036833780820191505090505b50905060006001541415610437576040517f08c379a000000000000000000000000000000000000000000000000000000000815260040161042e90610a0b565b60405180910390fd5b8473ffffffffffffffffffffffffffffffffffffffff166323b872dd3330866040518463ffffffff1660e01b815260040161047493929190610b48565b6020604051808303816000875af1158015610493573d6000803e3d6000fd5b505050506040513d601f19601f820116820180604052508101906104b79190610bb7565b5081816000815181106104cd576104cc610a2b565b5b6020026020010181815250506104e2856106ff565b816001815181106104f6576104f5610a2b565b5b602002602001018181525050838160028151811061051757610516610a2b565b5b602002602001018181525050828160038151811061053857610537610a2b565b5b602002602001018181525050600260009054906101000a900473ffffffffffffffffffffffffffffffffffffffff1673ffffffffffffffffffffffffffffffffffffffff16633e3aa6c56001547f03d7e9aabaee46b2e84062eb3bca33a0c08e1142b329c095d47ec3d6af1adbc6846040518463ffffffff1660e01b81526004016105c593929190610be4565b600060405180830381600087803b1580156105df57600080fd5b505af11580156105f3573d6000803e3d6000fd5b505050505050505050565b60008054906101000a900473ffffffffffffffffffffffffffffffffffffffff1673ffffffffffffffffffffffffffffffffffffffff163373ffffffffffffffffffffffffffffffffffffffff161461068c576040517f08c379a000000000000000000000000000000000000000000000000000000000815260040161068390610c6e565b60405180910390fd5b6000600154146106d1576040517f08c379a00000000000000000000000000000000000000000000000000000000081526004016106c890610d00565b60405180910390fd5b8060018190555050565b60008054906101000a900473ffffffffffffffffffffffffffffffffffffffff1681565b60008173ffffffffffffffffffffffffffffffffffffffff169050919050565b600073ffffffffffffffffffffffffffffffffffffffff82169050919050565b6000819050919050565b600061076461075f61075a8461071f565b61073f565b61071f565b9050919050565b600061077682610749565b9050919050565b60006107888261076b565b9050919050565b6107988161077d565b82525050565b60006020820190506107b3600083018461078f565b92915050565b6000819050919050565b6107cc816107b9565b82525050565b60006020820190506107e760008301846107c3565b92915050565b600080fd5b60006107fd8261071f565b9050919050565b600061080f826107f2565b9050919050565b61081f81610804565b811461082a57600080fd5b50565b60008135905061083c81610816565b92915050565b61084b816107b9565b811461085657600080fd5b50565b60008135905061086881610842565b92915050565b600080600060608486031215610887576108866107ed565b5b60006108958682870161082d565b93505060206108a686828701610859565b92505060406108b786828701610859565b9150509250925092565b600080600080608085870312156108db576108da6107ed565b5b60006108e98782880161082d565b94505060206108fa87828801610859565b935050604061090b87828801610859565b925050606061091c87828801610859565b91505092959194509250565b60006020828403121561093e5761093d6107ed565b5b600061094c84828501610859565b91505092915050565b61095e816107f2565b82525050565b60006020820190506109796000830184610955565b92915050565b7f4e487b7100000000000000000000000000000000000000000000000000000000600052604160045260246000fd5b600082825260208201905092915050565b7f4761746577617920756e73657400000000000000000000000000000000000000600082015250565b60006109f5600d836109ae565b9150610a00826109bf565b602082019050919050565b60006020820190508181036000830152610a24816109e8565b9050919050565b7f4e487b7100000000000000000000000000000000000000000000000000000000600052603260045260246000fd5b600081519050919050565b600082825260208201905092915050565b6000819050602082019050919050565b610a8f816107b9565b82525050565b6000610aa18383610a86565b60208301905092915050565b6000602082019050919050565b6000610ac582610a5a565b610acf8185610a65565b9350610ada83610a76565b8060005b83811015610b0b578151610af28882610a95565b9750610afd83610aad565b925050600181019050610ade565b5085935050505092915050565b6000604082019050610b2d60008301856107c3565b8181036020830152610b3f8184610aba565b90509392505050565b6000606082019050610b5d6000830186610955565b610b6a6020830185610955565b610b7760408301846107c3565b949350505050565b60008115159050919050565b610b9481610b7f565b8114610b9f57600080fd5b50565b600081519050610bb181610b8b565b92915050565b600060208284031215610bcd57610bcc6107ed565b5b6000610bdb84828501610ba2565b91505092915050565b6000606082019050610bf960008301866107c3565b610c0660208301856107c3565b8181036040830152610c188184610aba565b9050949350505050565b7f476174657761792f756e617574686f72697a6564000000000000000000000000600082015250565b6000610c586014836109ae565b9150610c6382610c22565b602082019050919050565b60006020820190508181036000830152610c8781610c4b565b9050919050565b7f476174657761792f656e64706f696e742d676174657761792d616c726561647960008201527f2d73657400000000000000000000000000000000000000000000000000000000602082015250565b6000610cea6024836109ae565b9150610cf582610c8e565b604082019050919050565b60006020820190508181036000830152610d1981610cdd565b905091905056fea264697066735822122044934e745f6412d35c7b725f124a41ca0e70ab6ee29e1e70631c1201fceecbfd64736f6c634300080a0033",
  "linkReferences": {},
  "deployedLinkReferences": {}
}