{
  "_format": "hh-sol-artifact-1",
  "contractName": "Auctions",
  "sourceName": "contracts/ethereum/auction/Auction.sol",
  "abi": [
    {
      "inputs": [],
      "stateMutability": "nonpayable",
      "type": "constructor"
    },
    {
      "anonymous": false,
      "inputs": [
        {
          "indexed": true,
          "internalType": "address",
          "name": "previousOwner",
          "type": "address"
        },
        {
          "indexed": true,
          "internalType": "address",
          "name": "newOwner",
          "type": "address"
        }
      ],
      "name": "OwnershipTransferred",
      "type": "event"
    },
    {
      "inputs": [],
      "name": "EMPTY_ADDRESS",
      "outputs": [
        {
          "internalType": "address",
          "name": "",
          "type": "address"
        }
      ],
      "stateMutability": "view",
      "type": "function"
    },
    {
      "inputs": [
        {
          "internalType": "address",
          "name": "_contract_sale",
          "type": "address"
        },
        {
          "internalType": "uint256",
          "name": "_token_id",
          "type": "uint256"
        }
      ],
      "name": "auctionInfo",
      "outputs": [
        {
          "internalType": "uint256",
          "name": "start_price",
          "type": "uint256"
        },
        {
          "internalType": "address",
          "name": "highest_bidder",
          "type": "address"
        },
        {
          "internalType": "address",
          "name": "coin_buy",
          "type": "address"
        },
        {
          "internalType": "address",
          "name": "creator",
          "type": "address"
        },
        {
          "internalType": "bool",
          "name": "ended",
          "type": "bool"
        }
      ],
      "stateMutability": "view",
      "type": "function"
    },
    {
      "inputs": [
        {
          "internalType": "address",
          "name": "_contract_sale",
          "type": "address"
        },
        {
          "internalType": "uint256",
          "name": "_token_id",
          "type": "uint256"
        },
        {
          "internalType": "uint256",
          "name": "amount",
          "type": "uint256"
        }
      ],
      "name": "bid",
      "outputs": [],
      "stateMutability": "nonpayable",
      "type": "function"
    },
    {
      "inputs": [
        {
          "internalType": "address",
          "name": "_contract_sale",
          "type": "address"
        },
        {
          "internalType": "uint256",
          "name": "_token_id",
          "type": "uint256"
        },
        {
          "internalType": "address",
          "name": "_bidder",
          "type": "address"
        }
      ],
      "name": "biddedBalance",
      "outputs": [
        {
          "internalType": "uint256",
          "name": "bidded",
          "type": "uint256"
        }
      ],
      "stateMutability": "view",
      "type": "function"
    },
    {
      "inputs": [
        {
          "internalType": "address",
          "name": "_contract_sale",
          "type": "address"
        },
        {
          "internalType": "uint256",
          "name": "_token_id",
          "type": "uint256"
        }
      ],
      "name": "finish",
      "outputs": [],
      "stateMutability": "nonpayable",
      "type": "function"
    },
    {
      "inputs": [],
      "name": "owner",
      "outputs": [
        {
          "internalType": "address",
          "name": "",
          "type": "address"
        }
      ],
      "stateMutability": "view",
      "type": "function"
    },
    {
      "inputs": [],
      "name": "renounceOwnership",
      "outputs": [],
      "stateMutability": "nonpayable",
      "type": "function"
    },
    {
      "inputs": [
        {
          "internalType": "address",
          "name": "_contract_sale",
          "type": "address"
        },
        {
          "internalType": "uint256",
          "name": "_token_id",
          "type": "uint256"
        },
        {
          "internalType": "address",
          "name": "_coin_buy",
          "type": "address"
        },
        {
          "internalType": "uint256",
          "name": "_start_price",
          "type": "uint256"
        }
      ],
      "name": "start",
      "outputs": [],
      "stateMutability": "nonpayable",
      "type": "function"
    },
    {
      "inputs": [
        {
          "internalType": "address",
          "name": "newOwner",
          "type": "address"
        }
      ],
      "name": "transferOwnership",
      "outputs": [],
      "stateMutability": "nonpayable",
      "type": "function"
    },
    {
      "inputs": [
        {
          "internalType": "address",
          "name": "_contract_sale",
          "type": "address"
        },
        {
          "internalType": "uint256",
          "name": "_token_id",
          "type": "uint256"
        }
      ],
      "name": "withdraw",
      "outputs": [],
      "stateMutability": "nonpayable",
      "type": "function"
    }
  ],
  "bytecode": "0x608060405234801561001057600080fd5b5061002d61002261003260201b60201c565b61003a60201b60201c565b6100fe565b600033905090565b60008060009054906101000a900473ffffffffffffffffffffffffffffffffffffffff169050816000806101000a81548173ffffffffffffffffffffffffffffffffffffffff021916908373ffffffffffffffffffffffffffffffffffffffff1602179055508173ffffffffffffffffffffffffffffffffffffffff168173ffffffffffffffffffffffffffffffffffffffff167f8be0079c531659141344cd1fd0a4f28419497f9722a3daafe3b4186f6b6457e060405160405180910390a35050565b611f368061010d6000396000f3fe608060405234801561001057600080fd5b506004361061009e5760003560e01c8063d1d6421611610066578063d1d6421614610133578063e25df42e14610167578063eb39c3af14610183578063f2fde38b146101a1578063f3fef3a3146101bd5761009e565b80630f41ba4b146100a357806329008824146100bf578063715018a6146100db5780638da5cb5b146100e5578063c8a9e1ea14610103575b600080fd5b6100bd60048036038101906100b89190611653565b6101d9565b005b6100d960048036038101906100d491906116a6565b6105d0565b005b6100e3610b27565b005b6100ed610baf565b6040516100fa91906116f5565b60405180910390f35b61011d60048036038101906101189190611710565b610bd8565b60405161012a9190611772565b60405180910390f35b61014d600480360381019061014891906116a6565b610c6e565b60405161015e9594939291906117a8565b60405180910390f35b610181600480360381019061017c91906117fb565b610ddf565b005b61018b611139565b60405161019891906116f5565b60405180910390f35b6101bb60048036038101906101b69190611862565b61113e565b005b6101d760048036038101906101d291906116a6565b611236565b005b6000600284846040516020016101f09291906118f8565b60405160208183030381529060405260405161020c919061199e565b602060405180830381855afa158015610229573d6000803e3d6000fd5b5050506040513d601f19601f8201168201806040525081019061024c91906119eb565b9050600073ffffffffffffffffffffffffffffffffffffffff166001600083815260200190815260200160002060030160009054906101000a900473ffffffffffffffffffffffffffffffffffffffff1673ffffffffffffffffffffffffffffffffffffffff1614156102f4576040517f08c379a00000000000000000000000000000000000000000000000000000000081526004016102eb90611a75565b60405180910390fd5b6000600285853360405160200161030d93929190611a95565b604051602081830303815290604052604051610329919061199e565b602060405180830381855afa158015610346573d6000803e3d6000fd5b5050506040513d601f19601f8201168201806040525081019061036991906119eb565b905060006001600084815260200190815260200160002060020160009054906101000a900473ffffffffffffffffffffffffffffffffffffffff1690508073ffffffffffffffffffffffffffffffffffffffff166323b872dd3330876040518463ffffffff1660e01b81526004016103e393929190611ad2565b6020604051808303816000875af1158015610402573d6000803e3d6000fd5b505050506040513d601f19601f820116820180604052508101906104269190611b35565b508360026000848152602001908152602001600020546104469190611b91565b60026000848152602001908152602001600020819055506000600287876001600088815260200190815260200160002060010160009054906101000a900473ffffffffffffffffffffffffffffffffffffffff166040516020016104ac93929190611a95565b6040516020818303038152906040526040516104c8919061199e565b602060405180830381855afa1580156104e5573d6000803e3d6000fd5b5050506040513d601f19601f8201168201806040525081019061050891906119eb565b90506002600084815260200190815260200160002054600260008381526020019081526020016000205410610572576040517f08c379a000000000000000000000000000000000000000000000000000000000815260040161056990611c33565b60405180910390fd5b336001600086815260200190815260200160002060010160006101000a81548173ffffffffffffffffffffffffffffffffffffffff021916908373ffffffffffffffffffffffffffffffffffffffff16021790555050505050505050565b6000600283836040516020016105e79291906118f8565b604051602081830303815290604052604051610603919061199e565b602060405180830381855afa158015610620573d6000803e3d6000fd5b5050506040513d601f19601f8201168201806040525081019061064391906119eb565b905061064d611547565b600160008381526020019081526020016000206040518060a0016040529081600082015481526020016001820160009054906101000a900473ffffffffffffffffffffffffffffffffffffffff1673ffffffffffffffffffffffffffffffffffffffff1673ffffffffffffffffffffffffffffffffffffffff1681526020016002820160009054906101000a900473ffffffffffffffffffffffffffffffffffffffff1673ffffffffffffffffffffffffffffffffffffffff1673ffffffffffffffffffffffffffffffffffffffff1681526020016003820160009054906101000a900473ffffffffffffffffffffffffffffffffffffffff1673ffffffffffffffffffffffffffffffffffffffff1673ffffffffffffffffffffffffffffffffffffffff1681526020016003820160149054906101000a900460ff16151515158152505090503373ffffffffffffffffffffffffffffffffffffffff16816060015173ffffffffffffffffffffffffffffffffffffffff16148061086b57503373ffffffffffffffffffffffffffffffffffffffff163073ffffffffffffffffffffffffffffffffffffffff16638da5cb5b6040518163ffffffff1660e01b8152600401602060405180830381865afa15801561082f573d6000803e3d6000fd5b505050506040513d601f19601f820116820180604052508101906108539190611c68565b73ffffffffffffffffffffffffffffffffffffffff16145b6108aa576040517f08c379a00000000000000000000000000000000000000000000000000000000081526004016108a190611ce1565b60405180910390fd5b6000849050600073ffffffffffffffffffffffffffffffffffffffff16826020015173ffffffffffffffffffffffffffffffffffffffff161415610960578073ffffffffffffffffffffffffffffffffffffffff166323b872dd308460600151876040518463ffffffff1660e01b815260040161092993929190611ad2565b600060405180830381600087803b15801561094357600080fd5b505af1158015610957573d6000803e3d6000fd5b50505050610b0f565b6000826040015190508173ffffffffffffffffffffffffffffffffffffffff166323b872dd308560200151886040518463ffffffff1660e01b81526004016109aa93929190611ad2565b600060405180830381600087803b1580156109c457600080fd5b505af11580156109d8573d6000803e3d6000fd5b5050505060006002878786602001516040516020016109f993929190611a95565b604051602081830303815290604052604051610a15919061199e565b602060405180830381855afa158015610a32573d6000803e3d6000fd5b5050506040513d601f19601f82011682018060405250810190610a5591906119eb565b9050600060026000838152602001908152602001600020549050600060026000848152602001908152602001600020819055508273ffffffffffffffffffffffffffffffffffffffff1663a9059cbb8660600151836040518363ffffffff1660e01b8152600401610ac7929190611d01565b6020604051808303816000875af1158015610ae6573d6000803e3d6000fd5b505050506040513d601f19601f82011682018060405250810190610b0a9190611b35565b505050505b60018260800190151590811515815250505050505050565b610b2f61147b565b73ffffffffffffffffffffffffffffffffffffffff16610b4d610baf565b73ffffffffffffffffffffffffffffffffffffffff1614610ba3576040517f08c379a0000000000000000000000000000000000000000000000000000000008152600401610b9a90611d76565b60405180910390fd5b610bad6000611483565b565b60008060009054906101000a900473ffffffffffffffffffffffffffffffffffffffff16905090565b6000806002858585604051602001610bf293929190611a95565b604051602081830303815290604052604051610c0e919061199e565b602060405180830381855afa158015610c2b573d6000803e3d6000fd5b5050506040513d601f19601f82011682018060405250810190610c4e91906119eb565b905060026000828152602001908152602001600020549150509392505050565b60008060008060008060028888604051602001610c8c9291906118f8565b604051602081830303815290604052604051610ca8919061199e565b602060405180830381855afa158015610cc5573d6000803e3d6000fd5b5050506040513d601f19601f82011682018060405250810190610ce891906119eb565b9050600160008281526020019081526020016000206000015495506001600082815260200190815260200160002060010160009054906101000a900473ffffffffffffffffffffffffffffffffffffffff1694506001600082815260200190815260200160002060020160009054906101000a900473ffffffffffffffffffffffffffffffffffffffff1693506001600082815260200190815260200160002060030160009054906101000a900473ffffffffffffffffffffffffffffffffffffffff1692506001600082815260200190815260200160002060030160149054906101000a900460ff169150509295509295909350565b600060028585604051602001610df69291906118f8565b604051602081830303815290604052604051610e12919061199e565b602060405180830381855afa158015610e2f573d6000803e3d6000fd5b5050506040513d601f19601f82011682018060405250810190610e5291906119eb565b905060008590503373ffffffffffffffffffffffffffffffffffffffff168173ffffffffffffffffffffffffffffffffffffffff16636352211e876040518263ffffffff1660e01b8152600401610ea99190611772565b602060405180830381865afa158015610ec6573d6000803e3d6000fd5b505050506040513d601f19601f82011682018060405250810190610eea9190611c68565b73ffffffffffffffffffffffffffffffffffffffff1614610f40576040517f08c379a0000000000000000000000000000000000000000000000000000000008152600401610f3790611de2565b60405180910390fd5b8073ffffffffffffffffffffffffffffffffffffffff166323b872dd3330886040518463ffffffff1660e01b8152600401610f7d93929190611ad2565b600060405180830381600087803b158015610f9757600080fd5b505af1158015610fab573d6000803e3d6000fd5b505050506040518060a00160405280848152602001600073ffffffffffffffffffffffffffffffffffffffff1681526020018573ffffffffffffffffffffffffffffffffffffffff1681526020013373ffffffffffffffffffffffffffffffffffffffff16815260200160001515815250600160008481526020019081526020016000206000820151816000015560208201518160010160006101000a81548173ffffffffffffffffffffffffffffffffffffffff021916908373ffffffffffffffffffffffffffffffffffffffff16021790555060408201518160020160006101000a81548173ffffffffffffffffffffffffffffffffffffffff021916908373ffffffffffffffffffffffffffffffffffffffff16021790555060608201518160030160006101000a81548173ffffffffffffffffffffffffffffffffffffffff021916908373ffffffffffffffffffffffffffffffffffffffff16021790555060808201518160030160146101000a81548160ff021916908315150217905550905050505050505050565b600081565b61114661147b565b73ffffffffffffffffffffffffffffffffffffffff16611164610baf565b73ffffffffffffffffffffffffffffffffffffffff16146111ba576040517f08c379a00000000000000000000000000000000000000000000000000000000081526004016111b190611d76565b60405180910390fd5b600073ffffffffffffffffffffffffffffffffffffffff168173ffffffffffffffffffffffffffffffffffffffff16141561122a576040517f08c379a000000000000000000000000000000000000000000000000000000000815260040161122190611e74565b60405180910390fd5b61123381611483565b50565b60006002838360405160200161124d9291906118f8565b604051602081830303815290604052604051611269919061199e565b602060405180830381855afa158015611286573d6000803e3d6000fd5b5050506040513d601f19601f820116820180604052508101906112a991906119eb565b9050600060028484336040516020016112c493929190611a95565b6040516020818303038152906040526040516112e0919061199e565b602060405180830381855afa1580156112fd573d6000803e3d6000fd5b5050506040513d601f19601f8201168201806040525081019061132091906119eb565b9050600115156001600084815260200190815260200160002060030160149054906101000a900460ff1615151461138c576040517f08c379a000000000000000000000000000000000000000000000000000000000815260040161138390611ee0565b60405180910390fd5b60006001600084815260200190815260200160002060020160009054906101000a900473ffffffffffffffffffffffffffffffffffffffff1690508073ffffffffffffffffffffffffffffffffffffffff166323b872dd303360026000878152602001908152602001600020546040518463ffffffff1660e01b815260040161141793929190611ad2565b6020604051808303816000875af1158015611436573d6000803e3d6000fd5b505050506040513d601f19601f8201168201806040525081019061145a9190611b35565b50600060026000848152602001908152602001600020819055505050505050565b600033905090565b60008060009054906101000a900473ffffffffffffffffffffffffffffffffffffffff169050816000806101000a81548173ffffffffffffffffffffffffffffffffffffffff021916908373ffffffffffffffffffffffffffffffffffffffff1602179055508173ffffffffffffffffffffffffffffffffffffffff168173ffffffffffffffffffffffffffffffffffffffff167f8be0079c531659141344cd1fd0a4f28419497f9722a3daafe3b4186f6b6457e060405160405180910390a35050565b6040518060a0016040528060008152602001600073ffffffffffffffffffffffffffffffffffffffff168152602001600073ffffffffffffffffffffffffffffffffffffffff168152602001600073ffffffffffffffffffffffffffffffffffffffff1681526020016000151581525090565b600080fd5b600073ffffffffffffffffffffffffffffffffffffffff82169050919050565b60006115ea826115bf565b9050919050565b6115fa816115df565b811461160557600080fd5b50565b600081359050611617816115f1565b92915050565b6000819050919050565b6116308161161d565b811461163b57600080fd5b50565b60008135905061164d81611627565b92915050565b60008060006060848603121561166c5761166b6115ba565b5b600061167a86828701611608565b935050602061168b8682870161163e565b925050604061169c8682870161163e565b9150509250925092565b600080604083850312156116bd576116bc6115ba565b5b60006116cb85828601611608565b92505060206116dc8582860161163e565b9150509250929050565b6116ef816115df565b82525050565b600060208201905061170a60008301846116e6565b92915050565b600080600060608486031215611729576117286115ba565b5b600061173786828701611608565b93505060206117488682870161163e565b925050604061175986828701611608565b9150509250925092565b61176c8161161d565b82525050565b60006020820190506117876000830184611763565b92915050565b60008115159050919050565b6117a28161178d565b82525050565b600060a0820190506117bd6000830188611763565b6117ca60208301876116e6565b6117d760408301866116e6565b6117e460608301856116e6565b6117f16080830184611799565b9695505050505050565b60008060008060808587031215611815576118146115ba565b5b600061182387828801611608565b94505060206118348782880161163e565b935050604061184587828801611608565b92505060606118568782880161163e565b91505092959194509250565b600060208284031215611878576118776115ba565b5b600061188684828501611608565b91505092915050565b60008160601b9050919050565b60006118a78261188f565b9050919050565b60006118b98261189c565b9050919050565b6118d16118cc826115df565b6118ae565b82525050565b6000819050919050565b6118f26118ed8261161d565b6118d7565b82525050565b600061190482856118c0565b60148201915061191482846118e1565b6020820191508190509392505050565b600081519050919050565b600081905092915050565b60005b8381101561195857808201518184015260208101905061193d565b83811115611967576000848401525b50505050565b600061197882611924565b611982818561192f565b935061199281856020860161193a565b80840191505092915050565b60006119aa828461196d565b915081905092915050565b6000819050919050565b6119c8816119b5565b81146119d357600080fd5b50565b6000815190506119e5816119bf565b92915050565b600060208284031215611a0157611a006115ba565b5b6000611a0f848285016119d6565b91505092915050565b600082825260208201905092915050565b7f4e4f545f45584953544544000000000000000000000000000000000000000000600082015250565b6000611a5f600b83611a18565b9150611a6a82611a29565b602082019050919050565b60006020820190508181036000830152611a8e81611a52565b9050919050565b6000611aa182866118c0565b601482019150611ab182856118e1565b602082019150611ac182846118c0565b601482019150819050949350505050565b6000606082019050611ae760008301866116e6565b611af460208301856116e6565b611b016040830184611763565b949350505050565b611b128161178d565b8114611b1d57600080fd5b50565b600081519050611b2f81611b09565b92915050565b600060208284031215611b4b57611b4a6115ba565b5b6000611b5984828501611b20565b91505092915050565b7f4e487b7100000000000000000000000000000000000000000000000000000000600052601160045260246000fd5b6000611b9c8261161d565b9150611ba78361161d565b9250827fffffffffffffffffffffffffffffffffffffffffffffffffffffffffffffffff03821115611bdc57611bdb611b62565b5b828201905092915050565b7f4249445f544f4f5f4c4f57000000000000000000000000000000000000000000600082015250565b6000611c1d600b83611a18565b9150611c2882611be7565b602082019050919050565b60006020820190508181036000830152611c4c81611c10565b9050919050565b600081519050611c62816115f1565b92915050565b600060208284031215611c7e57611c7d6115ba565b5b6000611c8c84828501611c53565b91505092915050565b7f4e4f205045524d495353494f4e00000000000000000000000000000000000000600082015250565b6000611ccb600d83611a18565b9150611cd682611c95565b602082019050919050565b60006020820190508181036000830152611cfa81611cbe565b9050919050565b6000604082019050611d1660008301856116e6565b611d236020830184611763565b9392505050565b7f4f776e61626c653a2063616c6c6572206973206e6f7420746865206f776e6572600082015250565b6000611d60602083611a18565b9150611d6b82611d2a565b602082019050919050565b60006020820190508181036000830152611d8f81611d53565b9050919050565b7f4e4f545f4f574e45440000000000000000000000000000000000000000000000600082015250565b6000611dcc600983611a18565b9150611dd782611d96565b602082019050919050565b60006020820190508181036000830152611dfb81611dbf565b9050919050565b7f4f776e61626c653a206e6577206f776e657220697320746865207a65726f206160008201527f6464726573730000000000000000000000000000000000000000000000000000602082015250565b6000611e5e602683611a18565b9150611e6982611e02565b604082019050919050565b60006020820190508181036000830152611e8d81611e51565b9050919050565b7f4e4f545f454e445f594554000000000000000000000000000000000000000000600082015250565b6000611eca600b83611a18565b9150611ed582611e94565b602082019050919050565b60006020820190508181036000830152611ef981611ebd565b905091905056fea26469706673582212207ba313103eea59292e952c992e991d9f83871200c874cfbef1842f1802fbc59d64736f6c634300080a0033",
  "linkReferences": {},
  "deployedLinkReferences": {}
}