{
  "_format": "hh-sol-artifact-1",
  "contractName": "NFTAuction",
  "sourceName": "contracts/ethereum/erc721/NFTAuction.sol",
  "abi": [
    {
      "inputs": [
        {
          "internalType": "string",
          "name": "_uri",
          "type": "string"
        }
      ],
      "stateMutability": "nonpayable",
      "type": "constructor"
    },
    {
      "anonymous": false,
      "inputs": [
        {
          "indexed": true,
          "internalType": "address",
          "name": "owner",
          "type": "address"
        },
        {
          "indexed": true,
          "internalType": "address",
          "name": "approved",
          "type": "address"
        },
        {
          "indexed": true,
          "internalType": "uint256",
          "name": "tokenId",
          "type": "uint256"
        }
      ],
      "name": "Approval",
      "type": "event"
    },
    {
      "anonymous": false,
      "inputs": [
        {
          "indexed": true,
          "internalType": "address",
          "name": "owner",
          "type": "address"
        },
        {
          "indexed": true,
          "internalType": "address",
          "name": "operator",
          "type": "address"
        },
        {
          "indexed": false,
          "internalType": "bool",
          "name": "approved",
          "type": "bool"
        }
      ],
      "name": "ApprovalForAll",
      "type": "event"
    },
    {
      "anonymous": false,
      "inputs": [
        {
          "indexed": true,
          "internalType": "address",
          "name": "previousOwner",
          "type": "address"
        },
        {
          "indexed": true,
          "internalType": "address",
          "name": "newOwner",
          "type": "address"
        }
      ],
      "name": "OwnershipTransferred",
      "type": "event"
    },
    {
      "anonymous": false,
      "inputs": [
        {
          "indexed": true,
          "internalType": "address",
          "name": "from",
          "type": "address"
        },
        {
          "indexed": true,
          "internalType": "address",
          "name": "to",
          "type": "address"
        },
        {
          "indexed": true,
          "internalType": "uint256",
          "name": "tokenId",
          "type": "uint256"
        }
      ],
      "name": "Transfer",
      "type": "event"
    },
    {
      "inputs": [
        {
          "internalType": "address",
          "name": "to",
          "type": "address"
        },
        {
          "internalType": "uint256",
          "name": "tokenId",
          "type": "uint256"
        }
      ],
      "name": "approve",
      "outputs": [],
      "stateMutability": "nonpayable",
      "type": "function"
    },
    {
      "inputs": [
        {
          "internalType": "address",
          "name": "owner",
          "type": "address"
        }
      ],
      "name": "balanceOf",
      "outputs": [
        {
          "internalType": "uint256",
          "name": "",
          "type": "uint256"
        }
      ],
      "stateMutability": "view",
      "type": "function"
    },
    {
      "inputs": [
        {
          "internalType": "uint256",
          "name": "tokenId",
          "type": "uint256"
        }
      ],
      "name": "getApproved",
      "outputs": [
        {
          "internalType": "address",
          "name": "",
          "type": "address"
        }
      ],
      "stateMutability": "view",
      "type": "function"
    },
    {
      "inputs": [
        {
          "internalType": "address",
          "name": "owner",
          "type": "address"
        },
        {
          "internalType": "address",
          "name": "operator",
          "type": "address"
        }
      ],
      "name": "isApprovedForAll",
      "outputs": [
        {
          "internalType": "bool",
          "name": "",
          "type": "bool"
        }
      ],
      "stateMutability": "view",
      "type": "function"
    },
    {
      "inputs": [
        {
          "internalType": "address",
          "name": "_to",
          "type": "address"
        },
        {
          "internalType": "string",
          "name": "_uri",
          "type": "string"
        }
      ],
      "name": "mint",
      "outputs": [
        {
          "internalType": "uint256",
          "name": "id",
          "type": "uint256"
        }
      ],
      "stateMutability": "nonpayable",
      "type": "function"
    },
    {
      "inputs": [],
      "name": "name",
      "outputs": [
        {
          "internalType": "string",
          "name": "",
          "type": "string"
        }
      ],
      "stateMutability": "view",
      "type": "function"
    },
    {
      "inputs": [],
      "name": "owner",
      "outputs": [
        {
          "internalType": "address",
          "name": "",
          "type": "address"
        }
      ],
      "stateMutability": "view",
      "type": "function"
    },
    {
      "inputs": [
        {
          "internalType": "uint256",
          "name": "tokenId",
          "type": "uint256"
        }
      ],
      "name": "ownerOf",
      "outputs": [
        {
          "internalType": "address",
          "name": "",
          "type": "address"
        }
      ],
      "stateMutability": "view",
      "type": "function"
    },
    {
      "inputs": [],
      "name": "renounceOwnership",
      "outputs": [],
      "stateMutability": "nonpayable",
      "type": "function"
    },
    {
      "inputs": [
        {
          "internalType": "address",
          "name": "from",
          "type": "address"
        },
        {
          "internalType": "address",
          "name": "to",
          "type": "address"
        },
        {
          "internalType": "uint256",
          "name": "tokenId",
          "type": "uint256"
        }
      ],
      "name": "safeTransferFrom",
      "outputs": [],
      "stateMutability": "nonpayable",
      "type": "function"
    },
    {
      "inputs": [
        {
          "internalType": "address",
          "name": "from",
          "type": "address"
        },
        {
          "internalType": "address",
          "name": "to",
          "type": "address"
        },
        {
          "internalType": "uint256",
          "name": "tokenId",
          "type": "uint256"
        },
        {
          "internalType": "bytes",
          "name": "_data",
          "type": "bytes"
        }
      ],
      "name": "safeTransferFrom",
      "outputs": [],
      "stateMutability": "nonpayable",
      "type": "function"
    },
    {
      "inputs": [
        {
          "internalType": "address",
          "name": "operator",
          "type": "address"
        },
        {
          "internalType": "bool",
          "name": "approved",
          "type": "bool"
        }
      ],
      "name": "setApprovalForAll",
      "outputs": [],
      "stateMutability": "nonpayable",
      "type": "function"
    },
    {
      "inputs": [
        {
          "internalType": "bytes4",
          "name": "interfaceId",
          "type": "bytes4"
        }
      ],
      "name": "supportsInterface",
      "outputs": [
        {
          "internalType": "bool",
          "name": "",
          "type": "bool"
        }
      ],
      "stateMutability": "view",
      "type": "function"
    },
    {
      "inputs": [],
      "name": "symbol",
      "outputs": [
        {
          "internalType": "string",
          "name": "",
          "type": "string"
        }
      ],
      "stateMutability": "view",
      "type": "function"
    },
    {
      "inputs": [
        {
          "internalType": "uint256",
          "name": "index",
          "type": "uint256"
        }
      ],
      "name": "tokenByIndex",
      "outputs": [
        {
          "internalType": "uint256",
          "name": "",
          "type": "uint256"
        }
      ],
      "stateMutability": "view",
      "type": "function"
    },
    {
      "inputs": [
        {
          "internalType": "address",
          "name": "owner",
          "type": "address"
        },
        {
          "internalType": "uint256",
          "name": "index",
          "type": "uint256"
        }
      ],
      "name": "tokenOfOwnerByIndex",
      "outputs": [
        {
          "internalType": "uint256",
          "name": "",
          "type": "uint256"
        }
      ],
      "stateMutability": "view",
      "type": "function"
    },
    {
      "inputs": [
        {
          "internalType": "uint256",
          "name": "tokenId",
          "type": "uint256"
        }
      ],
      "name": "tokenURI",
      "outputs": [
        {
          "internalType": "string",
          "name": "",
          "type": "string"
        }
      ],
      "stateMutability": "view",
      "type": "function"
    },
    {
      "inputs": [],
      "name": "totalSupply",
      "outputs": [
        {
          "internalType": "uint256",
          "name": "",
          "type": "uint256"
        }
      ],
      "stateMutability": "view",
      "type": "function"
    },
    {
      "inputs": [
        {
          "internalType": "address",
          "name": "from",
          "type": "address"
        },
        {
          "internalType": "address",
          "name": "to",
          "type": "address"
        },
        {
          "internalType": "uint256",
          "name": "tokenId",
          "type": "uint256"
        }
      ],
      "name": "transferFrom",
      "outputs": [],
      "stateMutability": "nonpayable",
      "type": "function"
    },
    {
      "inputs": [
        {
          "internalType": "address",
          "name": "newOwner",
          "type": "address"
        }
      ],
      "name": "transferOwnership",
      "outputs": [],
      "stateMutability": "nonpayable",
      "type": "function"
    },
    {
      "inputs": [],
      "name": "uri",
      "outputs": [
        {
          "internalType": "string",
          "name": "",
          "type": "string"
        }
      ],
      "stateMutability": "view",
      "type": "function"
    }
  ],
  "bytecode": "0x60806040523480156200001157600080fd5b506040516200372338038062003723833981810160405281019062000037919062000432565b6040518060400160405280600a81526020017f4e465441756374696f6e000000000000000000000000000000000000000000008152506040518060400160405280600481526020017f4e465441000000000000000000000000000000000000000000000000000000008152508160009080519060200190620000bb929190620001e5565b508060019080519060200190620000d4929190620001e5565b505050620000f7620000eb6200011760201b60201c565b6200011f60201b60201c565b80600b90805190602001906200010f929190620001e5565b5050620004e8565b600033905090565b6000600a60009054906101000a900473ffffffffffffffffffffffffffffffffffffffff16905081600a60006101000a81548173ffffffffffffffffffffffffffffffffffffffff021916908373ffffffffffffffffffffffffffffffffffffffff1602179055508173ffffffffffffffffffffffffffffffffffffffff168173ffffffffffffffffffffffffffffffffffffffff167f8be0079c531659141344cd1fd0a4f28419497f9722a3daafe3b4186f6b6457e060405160405180910390a35050565b828054620001f390620004b2565b90600052602060002090601f01602090048101928262000217576000855562000263565b82601f106200023257805160ff191683800117855562000263565b8280016001018555821562000263579182015b828111156200026257825182559160200191906001019062000245565b5b50905062000272919062000276565b5090565b5b808211156200029157600081600090555060010162000277565b5090565b6000604051905090565b600080fd5b600080fd5b600080fd5b600080fd5b6000601f19601f8301169050919050565b7f4e487b7100000000000000000000000000000000000000000000000000000000600052604160045260246000fd5b620002fe82620002b3565b810181811067ffffffffffffffff8211171562000320576200031f620002c4565b5b80604052505050565b60006200033562000295565b9050620003438282620002f3565b919050565b600067ffffffffffffffff821115620003665762000365620002c4565b5b6200037182620002b3565b9050602081019050919050565b60005b838110156200039e57808201518184015260208101905062000381565b83811115620003ae576000848401525b50505050565b6000620003cb620003c58462000348565b62000329565b905082815260208101848484011115620003ea57620003e9620002ae565b5b620003f78482856200037e565b509392505050565b600082601f830112620004175762000416620002a9565b5b815162000429848260208601620003b4565b91505092915050565b6000602082840312156200044b576200044a6200029f565b5b600082015167ffffffffffffffff8111156200046c576200046b620002a4565b5b6200047a84828501620003ff565b91505092915050565b7f4e487b7100000000000000000000000000000000000000000000000000000000600052602260045260246000fd5b60006002820490506001821680620004cb57607f821691505b60208210811415620004e257620004e162000483565b5b50919050565b61322b80620004f86000396000f3fe608060405234801561001057600080fd5b50600436106101375760003560e01c806370a08231116100b8578063b88d4fde1161007c578063b88d4fde1461034e578063c87b56dd1461036a578063d0def5211461039a578063e985e9c5146103ca578063eac989f8146103fa578063f2fde38b1461041857610137565b806370a08231146102bc578063715018a6146102ec5780638da5cb5b146102f657806395d89b4114610314578063a22cb4651461033257610137565b806323b872dd116100ff57806323b872dd146101f45780632f745c591461021057806342842e0e146102405780634f6ccce71461025c5780636352211e1461028c57610137565b806301ffc9a71461013c57806306fdde031461016c578063081812fc1461018a578063095ea7b3146101ba57806318160ddd146101d6575b600080fd5b61015660048036038101906101519190611fd7565b610434565b604051610163919061201f565b60405180910390f35b6101746104ae565b60405161018191906120d3565b60405180910390f35b6101a4600480360381019061019f919061212b565b610540565b6040516101b19190612199565b60405180910390f35b6101d460048036038101906101cf91906121e0565b6105c5565b005b6101de6106dd565b6040516101eb919061222f565b60405180910390f35b61020e6004803603810190610209919061224a565b6106ea565b005b61022a600480360381019061022591906121e0565b61074a565b604051610237919061222f565b60405180910390f35b61025a6004803603810190610255919061224a565b6107ef565b005b6102766004803603810190610271919061212b565b61080f565b604051610283919061222f565b60405180910390f35b6102a660048036038101906102a1919061212b565b610880565b6040516102b39190612199565b60405180910390f35b6102d660048036038101906102d1919061229d565b610932565b6040516102e3919061222f565b60405180910390f35b6102f46109ea565b005b6102fe610a72565b60405161030b9190612199565b60405180910390f35b61031c610a9c565b60405161032991906120d3565b60405180910390f35b61034c600480360381019061034791906122f6565b610b2e565b005b6103686004803603810190610363919061246b565b610caf565b005b610384600480360381019061037f919061212b565b610d11565b60405161039191906120d3565b60405180910390f35b6103b460048036038101906103af919061254e565b610dfe565b6040516103c1919061222f565b60405180910390f35b6103e460048036038101906103df91906125ae565b610e51565b6040516103f1919061201f565b60405180910390f35b610402610ee5565b60405161040f91906120d3565b60405180910390f35b610432600480360381019061042d919061229d565b610f73565b005b60007f780e9d63000000000000000000000000000000000000000000000000000000007bffffffffffffffffffffffffffffffffffffffffffffffffffffffff1916827bffffffffffffffffffffffffffffffffffffffffffffffffffffffff191614806104a757506104a68261106b565b5b9050919050565b6060600080546104bd9061261d565b80601f01602080910402602001604051908101604052809291908181526020018280546104e99061261d565b80156105365780601f1061050b57610100808354040283529160200191610536565b820191906000526020600020905b81548152906001019060200180831161051957829003601f168201915b5050505050905090565b600061054b8261114d565b61058a576040517f08c379a0000000000000000000000000000000000000000000000000000000008152600401610581906126c1565b60405180910390fd5b6004600083815260200190815260200160002060009054906101000a900473ffffffffffffffffffffffffffffffffffffffff169050919050565b60006105d082610880565b90508073ffffffffffffffffffffffffffffffffffffffff168373ffffffffffffffffffffffffffffffffffffffff161415610641576040517f08c379a000000000000000000000000000000000000000000000000000000000815260040161063890612753565b60405180910390fd5b8073ffffffffffffffffffffffffffffffffffffffff166106606111b9565b73ffffffffffffffffffffffffffffffffffffffff16148061068f575061068e816106896111b9565b610e51565b5b6106ce576040517f08c379a00000000000000000000000000000000000000000000000000000000081526004016106c5906127e5565b60405180910390fd5b6106d883836111c1565b505050565b6000600880549050905090565b6106fb6106f56111b9565b8261127a565b61073a576040517f08c379a000000000000000000000000000000000000000000000000000000000815260040161073190612877565b60405180910390fd5b610745838383611358565b505050565b600061075583610932565b8210610796576040517f08c379a000000000000000000000000000000000000000000000000000000000815260040161078d90612909565b60405180910390fd5b600660008473ffffffffffffffffffffffffffffffffffffffff1673ffffffffffffffffffffffffffffffffffffffff168152602001908152602001600020600083815260200190815260200160002054905092915050565b61080a83838360405180602001604052806000815250610caf565b505050565b60006108196106dd565b821061085a576040517f08c379a00000000000000000000000000000000000000000000000000000000081526004016108519061299b565b60405180910390fd5b6008828154811061086e5761086d6129bb565b5b90600052602060002001549050919050565b6000806002600084815260200190815260200160002060009054906101000a900473ffffffffffffffffffffffffffffffffffffffff169050600073ffffffffffffffffffffffffffffffffffffffff168173ffffffffffffffffffffffffffffffffffffffff161415610929576040517f08c379a000000000000000000000000000000000000000000000000000000000815260040161092090612a5c565b60405180910390fd5b80915050919050565b60008073ffffffffffffffffffffffffffffffffffffffff168273ffffffffffffffffffffffffffffffffffffffff1614156109a3576040517f08c379a000000000000000000000000000000000000000000000000000000000815260040161099a90612aee565b60405180910390fd5b600360008373ffffffffffffffffffffffffffffffffffffffff1673ffffffffffffffffffffffffffffffffffffffff168152602001908152602001600020549050919050565b6109f26111b9565b73ffffffffffffffffffffffffffffffffffffffff16610a10610a72565b73ffffffffffffffffffffffffffffffffffffffff1614610a66576040517f08c379a0000000000000000000000000000000000000000000000000000000008152600401610a5d90612b5a565b60405180910390fd5b610a7060006115b4565b565b6000600a60009054906101000a900473ffffffffffffffffffffffffffffffffffffffff16905090565b606060018054610aab9061261d565b80601f0160208091040260200160405190810160405280929190818152602001828054610ad79061261d565b8015610b245780601f10610af957610100808354040283529160200191610b24565b820191906000526020600020905b815481529060010190602001808311610b0757829003601f168201915b5050505050905090565b610b366111b9565b73ffffffffffffffffffffffffffffffffffffffff168273ffffffffffffffffffffffffffffffffffffffff161415610ba4576040517f08c379a0000000000000000000000000000000000000000000000000000000008152600401610b9b90612bc6565b60405180910390fd5b8060056000610bb16111b9565b73ffffffffffffffffffffffffffffffffffffffff1673ffffffffffffffffffffffffffffffffffffffff16815260200190815260200160002060008473ffffffffffffffffffffffffffffffffffffffff1673ffffffffffffffffffffffffffffffffffffffff16815260200190815260200160002060006101000a81548160ff0219169083151502179055508173ffffffffffffffffffffffffffffffffffffffff16610c5e6111b9565b73ffffffffffffffffffffffffffffffffffffffff167f17307eab39ab6107e8899845ad3d59bd9653f200f220920489ca2b5937696c3183604051610ca3919061201f565b60405180910390a35050565b610cc0610cba6111b9565b8361127a565b610cff576040517f08c379a0000000000000000000000000000000000000000000000000000000008152600401610cf690612877565b60405180910390fd5b610d0b8484848461167a565b50505050565b6060610d1c8261114d565b610d5b576040517f08c379a0000000000000000000000000000000000000000000000000000000008152600401610d5290612c58565b60405180910390fd5b600c60008381526020019081526020016000208054610d799061261d565b80601f0160208091040260200160405190810160405280929190818152602001828054610da59061261d565b8015610df25780601f10610dc757610100808354040283529160200191610df2565b820191906000526020600020905b815481529060010190602001808311610dd557829003601f168201915b50505050509050919050565b6000610e1d846001610e0e6106dd565b610e189190612ca7565b6116d6565b610e256106dd565b90508282600c60008481526020019081526020016000209190610e49929190611ec8565b509392505050565b6000600560008473ffffffffffffffffffffffffffffffffffffffff1673ffffffffffffffffffffffffffffffffffffffff16815260200190815260200160002060008373ffffffffffffffffffffffffffffffffffffffff1673ffffffffffffffffffffffffffffffffffffffff16815260200190815260200160002060009054906101000a900460ff16905092915050565b600b8054610ef29061261d565b80601f0160208091040260200160405190810160405280929190818152602001828054610f1e9061261d565b8015610f6b5780601f10610f4057610100808354040283529160200191610f6b565b820191906000526020600020905b815481529060010190602001808311610f4e57829003601f168201915b505050505081565b610f7b6111b9565b73ffffffffffffffffffffffffffffffffffffffff16610f99610a72565b73ffffffffffffffffffffffffffffffffffffffff1614610fef576040517f08c379a0000000000000000000000000000000000000000000000000000000008152600401610fe690612b5a565b60405180910390fd5b600073ffffffffffffffffffffffffffffffffffffffff168173ffffffffffffffffffffffffffffffffffffffff16141561105f576040517f08c379a000000000000000000000000000000000000000000000000000000000815260040161105690612d6f565b60405180910390fd5b611068816115b4565b50565b60007f80ac58cd000000000000000000000000000000000000000000000000000000007bffffffffffffffffffffffffffffffffffffffffffffffffffffffff1916827bffffffffffffffffffffffffffffffffffffffffffffffffffffffff1916148061113657507f5b5e139f000000000000000000000000000000000000000000000000000000007bffffffffffffffffffffffffffffffffffffffffffffffffffffffff1916827bffffffffffffffffffffffffffffffffffffffffffffffffffffffff1916145b806111465750611145826118a4565b5b9050919050565b60008073ffffffffffffffffffffffffffffffffffffffff166002600084815260200190815260200160002060009054906101000a900473ffffffffffffffffffffffffffffffffffffffff1673ffffffffffffffffffffffffffffffffffffffff1614159050919050565b600033905090565b816004600083815260200190815260200160002060006101000a81548173ffffffffffffffffffffffffffffffffffffffff021916908373ffffffffffffffffffffffffffffffffffffffff160217905550808273ffffffffffffffffffffffffffffffffffffffff1661123483610880565b73ffffffffffffffffffffffffffffffffffffffff167f8c5be1e5ebec7d5bd14f71427d1e84f3dd0314c0f7b2291e5b200ac8c7c3b92560405160405180910390a45050565b60006112858261114d565b6112c4576040517f08c379a00000000000000000000000000000000000000000000000000000000081526004016112bb90612e01565b60405180910390fd5b60006112cf83610880565b90508073ffffffffffffffffffffffffffffffffffffffff168473ffffffffffffffffffffffffffffffffffffffff16148061133e57508373ffffffffffffffffffffffffffffffffffffffff1661132684610540565b73ffffffffffffffffffffffffffffffffffffffff16145b8061134f575061134e8185610e51565b5b91505092915050565b8273ffffffffffffffffffffffffffffffffffffffff1661137882610880565b73ffffffffffffffffffffffffffffffffffffffff16146113ce576040517f08c379a00000000000000000000000000000000000000000000000000000000081526004016113c590612e93565b60405180910390fd5b600073ffffffffffffffffffffffffffffffffffffffff168273ffffffffffffffffffffffffffffffffffffffff16141561143e576040517f08c379a000000000000000000000000000000000000000000000000000000000815260040161143590612f25565b60405180910390fd5b61144983838361190e565b6114546000826111c1565b6001600360008573ffffffffffffffffffffffffffffffffffffffff1673ffffffffffffffffffffffffffffffffffffffff16815260200190815260200160002060008282546114a49190612f45565b925050819055506001600360008473ffffffffffffffffffffffffffffffffffffffff1673ffffffffffffffffffffffffffffffffffffffff16815260200190815260200160002060008282546114fb9190612ca7565b92505081905550816002600083815260200190815260200160002060006101000a81548173ffffffffffffffffffffffffffffffffffffffff021916908373ffffffffffffffffffffffffffffffffffffffff160217905550808273ffffffffffffffffffffffffffffffffffffffff168473ffffffffffffffffffffffffffffffffffffffff167fddf252ad1be2c89b69c2b068fc378daa952ba7f163c4a11628f55a4df523b3ef60405160405180910390a4505050565b6000600a60009054906101000a900473ffffffffffffffffffffffffffffffffffffffff16905081600a60006101000a81548173ffffffffffffffffffffffffffffffffffffffff021916908373ffffffffffffffffffffffffffffffffffffffff1602179055508173ffffffffffffffffffffffffffffffffffffffff168173ffffffffffffffffffffffffffffffffffffffff167f8be0079c531659141344cd1fd0a4f28419497f9722a3daafe3b4186f6b6457e060405160405180910390a35050565b611685848484611358565b61169184848484611a22565b6116d0576040517f08c379a00000000000000000000000000000000000000000000000000000000081526004016116c790612feb565b60405180910390fd5b50505050565b600073ffffffffffffffffffffffffffffffffffffffff168273ffffffffffffffffffffffffffffffffffffffff161415611746576040517f08c379a000000000000000000000000000000000000000000000000000000000815260040161173d90613057565b60405180910390fd5b61174f8161114d565b1561178f576040517f08c379a0000000000000000000000000000000000000000000000000000000008152600401611786906130c3565b60405180910390fd5b61179b6000838361190e565b6001600360008473ffffffffffffffffffffffffffffffffffffffff1673ffffffffffffffffffffffffffffffffffffffff16815260200190815260200160002060008282546117eb9190612ca7565b92505081905550816002600083815260200190815260200160002060006101000a81548173ffffffffffffffffffffffffffffffffffffffff021916908373ffffffffffffffffffffffffffffffffffffffff160217905550808273ffffffffffffffffffffffffffffffffffffffff16600073ffffffffffffffffffffffffffffffffffffffff167fddf252ad1be2c89b69c2b068fc378daa952ba7f163c4a11628f55a4df523b3ef60405160405180910390a45050565b60007f01ffc9a7000000000000000000000000000000000000000000000000000000007bffffffffffffffffffffffffffffffffffffffffffffffffffffffff1916827bffffffffffffffffffffffffffffffffffffffffffffffffffffffff1916149050919050565b611919838383611baa565b600073ffffffffffffffffffffffffffffffffffffffff168373ffffffffffffffffffffffffffffffffffffffff16141561195c5761195781611baf565b61199b565b8173ffffffffffffffffffffffffffffffffffffffff168373ffffffffffffffffffffffffffffffffffffffff161461199a576119998382611bf8565b5b5b600073ffffffffffffffffffffffffffffffffffffffff168273ffffffffffffffffffffffffffffffffffffffff1614156119de576119d981611d65565b611a1d565b8273ffffffffffffffffffffffffffffffffffffffff168273ffffffffffffffffffffffffffffffffffffffff1614611a1c57611a1b8282611e36565b5b5b505050565b6000611a438473ffffffffffffffffffffffffffffffffffffffff16611eb5565b15611b9d578373ffffffffffffffffffffffffffffffffffffffff1663150b7a02611a6c6111b9565b8786866040518563ffffffff1660e01b8152600401611a8e9493929190613138565b6020604051808303816000875af1925050508015611aca57506040513d601f19601f82011682018060405250810190611ac79190613199565b60015b611b4d573d8060008114611afa576040519150601f19603f3d011682016040523d82523d6000602084013e611aff565b606091505b50600081511415611b45576040517f08c379a0000000000000000000000000000000000000000000000000000000008152600401611b3c90612feb565b60405180910390fd5b805181602001fd5b63150b7a0260e01b7bffffffffffffffffffffffffffffffffffffffffffffffffffffffff1916817bffffffffffffffffffffffffffffffffffffffffffffffffffffffff191614915050611ba2565b600190505b949350505050565b505050565b6008805490506009600083815260200190815260200160002081905550600881908060018154018082558091505060019003906000526020600020016000909190919091505550565b60006001611c0584610932565b611c0f9190612f45565b9050600060076000848152602001908152602001600020549050818114611cf4576000600660008673ffffffffffffffffffffffffffffffffffffffff1673ffffffffffffffffffffffffffffffffffffffff168152602001908152602001600020600084815260200190815260200160002054905080600660008773ffffffffffffffffffffffffffffffffffffffff1673ffffffffffffffffffffffffffffffffffffffff168152602001908152602001600020600084815260200190815260200160002081905550816007600083815260200190815260200160002081905550505b6007600084815260200190815260200160002060009055600660008573ffffffffffffffffffffffffffffffffffffffff1673ffffffffffffffffffffffffffffffffffffffff16815260200190815260200160002060008381526020019081526020016000206000905550505050565b60006001600880549050611d799190612f45565b9050600060096000848152602001908152602001600020549050600060088381548110611da957611da86129bb565b5b906000526020600020015490508060088381548110611dcb57611dca6129bb565b5b906000526020600020018190555081600960008381526020019081526020016000208190555060096000858152602001908152602001600020600090556008805480611e1a57611e196131c6565b5b6001900381819060005260206000200160009055905550505050565b6000611e4183610932565b905081600660008573ffffffffffffffffffffffffffffffffffffffff1673ffffffffffffffffffffffffffffffffffffffff168152602001908152602001600020600083815260200190815260200160002081905550806007600084815260200190815260200160002081905550505050565b600080823b905060008111915050919050565b828054611ed49061261d565b90600052602060002090601f016020900481019282611ef65760008555611f3d565b82601f10611f0f57803560ff1916838001178555611f3d565b82800160010185558215611f3d579182015b82811115611f3c578235825591602001919060010190611f21565b5b509050611f4a9190611f4e565b5090565b5b80821115611f67576000816000905550600101611f4f565b5090565b6000604051905090565b600080fd5b600080fd5b60007fffffffff0000000000000000000000000000000000000000000000000000000082169050919050565b611fb481611f7f565b8114611fbf57600080fd5b50565b600081359050611fd181611fab565b92915050565b600060208284031215611fed57611fec611f75565b5b6000611ffb84828501611fc2565b91505092915050565b60008115159050919050565b61201981612004565b82525050565b60006020820190506120346000830184612010565b92915050565b600081519050919050565b600082825260208201905092915050565b60005b83811015612074578082015181840152602081019050612059565b83811115612083576000848401525b50505050565b6000601f19601f8301169050919050565b60006120a58261203a565b6120af8185612045565b93506120bf818560208601612056565b6120c881612089565b840191505092915050565b600060208201905081810360008301526120ed818461209a565b905092915050565b6000819050919050565b612108816120f5565b811461211357600080fd5b50565b600081359050612125816120ff565b92915050565b60006020828403121561214157612140611f75565b5b600061214f84828501612116565b91505092915050565b600073ffffffffffffffffffffffffffffffffffffffff82169050919050565b600061218382612158565b9050919050565b61219381612178565b82525050565b60006020820190506121ae600083018461218a565b92915050565b6121bd81612178565b81146121c857600080fd5b50565b6000813590506121da816121b4565b92915050565b600080604083850312156121f7576121f6611f75565b5b6000612205858286016121cb565b925050602061221685828601612116565b9150509250929050565b612229816120f5565b82525050565b60006020820190506122446000830184612220565b92915050565b60008060006060848603121561226357612262611f75565b5b6000612271868287016121cb565b9350506020612282868287016121cb565b925050604061229386828701612116565b9150509250925092565b6000602082840312156122b3576122b2611f75565b5b60006122c1848285016121cb565b91505092915050565b6122d381612004565b81146122de57600080fd5b50565b6000813590506122f0816122ca565b92915050565b6000806040838503121561230d5761230c611f75565b5b600061231b858286016121cb565b925050602061232c858286016122e1565b9150509250929050565b600080fd5b600080fd5b7f4e487b7100000000000000000000000000000000000000000000000000000000600052604160045260246000fd5b61237882612089565b810181811067ffffffffffffffff8211171561239757612396612340565b5b80604052505050565b60006123aa611f6b565b90506123b6828261236f565b919050565b600067ffffffffffffffff8211156123d6576123d5612340565b5b6123df82612089565b9050602081019050919050565b82818337600083830152505050565b600061240e612409846123bb565b6123a0565b90508281526020810184848401111561242a5761242961233b565b5b6124358482856123ec565b509392505050565b600082601f83011261245257612451612336565b5b81356124628482602086016123fb565b91505092915050565b6000806000806080858703121561248557612484611f75565b5b6000612493878288016121cb565b94505060206124a4878288016121cb565b93505060406124b587828801612116565b925050606085013567ffffffffffffffff8111156124d6576124d5611f7a565b5b6124e28782880161243d565b91505092959194509250565b600080fd5b600080fd5b60008083601f84011261250e5761250d612336565b5b8235905067ffffffffffffffff81111561252b5761252a6124ee565b5b602083019150836001820283011115612547576125466124f3565b5b9250929050565b60008060006040848603121561256757612566611f75565b5b6000612575868287016121cb565b935050602084013567ffffffffffffffff81111561259657612595611f7a565b5b6125a2868287016124f8565b92509250509250925092565b600080604083850312156125c5576125c4611f75565b5b60006125d3858286016121cb565b92505060206125e4858286016121cb565b9150509250929050565b7f4e487b7100000000000000000000000000000000000000000000000000000000600052602260045260246000fd5b6000600282049050600182168061263557607f821691505b60208210811415612649576126486125ee565b5b50919050565b7f4552433732313a20617070726f76656420717565727920666f72206e6f6e657860008201527f697374656e7420746f6b656e0000000000000000000000000000000000000000602082015250565b60006126ab602c83612045565b91506126b68261264f565b604082019050919050565b600060208201905081810360008301526126da8161269e565b9050919050565b7f4552433732313a20617070726f76616c20746f2063757272656e74206f776e6560008201527f7200000000000000000000000000000000000000000000000000000000000000602082015250565b600061273d602183612045565b9150612748826126e1565b604082019050919050565b6000602082019050818103600083015261276c81612730565b9050919050565b7f4552433732313a20617070726f76652063616c6c6572206973206e6f74206f7760008201527f6e6572206e6f7220617070726f76656420666f7220616c6c0000000000000000602082015250565b60006127cf603883612045565b91506127da82612773565b604082019050919050565b600060208201905081810360008301526127fe816127c2565b9050919050565b7f4552433732313a207472616e736665722063616c6c6572206973206e6f74206f60008201527f776e6572206e6f7220617070726f766564000000000000000000000000000000602082015250565b6000612861603183612045565b915061286c82612805565b604082019050919050565b6000602082019050818103600083015261289081612854565b9050919050565b7f455243373231456e756d657261626c653a206f776e657220696e646578206f7560008201527f74206f6620626f756e6473000000000000000000000000000000000000000000602082015250565b60006128f3602b83612045565b91506128fe82612897565b604082019050919050565b60006020820190508181036000830152612922816128e6565b9050919050565b7f455243373231456e756d657261626c653a20676c6f62616c20696e646578206f60008201527f7574206f6620626f756e64730000000000000000000000000000000000000000602082015250565b6000612985602c83612045565b915061299082612929565b604082019050919050565b600060208201905081810360008301526129b481612978565b9050919050565b7f4e487b7100000000000000000000000000000000000000000000000000000000600052603260045260246000fd5b7f4552433732313a206f776e657220717565727920666f72206e6f6e657869737460008201527f656e7420746f6b656e0000000000000000000000000000000000000000000000602082015250565b6000612a46602983612045565b9150612a51826129ea565b604082019050919050565b60006020820190508181036000830152612a7581612a39565b9050919050565b7f4552433732313a2062616c616e636520717565727920666f7220746865207a6560008201527f726f206164647265737300000000000000000000000000000000000000000000602082015250565b6000612ad8602a83612045565b9150612ae382612a7c565b604082019050919050565b60006020820190508181036000830152612b0781612acb565b9050919050565b7f4f776e61626c653a2063616c6c6572206973206e6f7420746865206f776e6572600082015250565b6000612b44602083612045565b9150612b4f82612b0e565b602082019050919050565b60006020820190508181036000830152612b7381612b37565b9050919050565b7f4552433732313a20617070726f766520746f2063616c6c657200000000000000600082015250565b6000612bb0601983612045565b9150612bbb82612b7a565b602082019050919050565b60006020820190508181036000830152612bdf81612ba3565b9050919050565b7f4552433732314d657461646174613a2055524920717565727920666f72206e6f60008201527f6e6578697374656e7420746f6b656e0000000000000000000000000000000000602082015250565b6000612c42602f83612045565b9150612c4d82612be6565b604082019050919050565b60006020820190508181036000830152612c7181612c35565b9050919050565b7f4e487b7100000000000000000000000000000000000000000000000000000000600052601160045260246000fd5b6000612cb2826120f5565b9150612cbd836120f5565b9250827fffffffffffffffffffffffffffffffffffffffffffffffffffffffffffffffff03821115612cf257612cf1612c78565b5b828201905092915050565b7f4f776e61626c653a206e6577206f776e657220697320746865207a65726f206160008201527f6464726573730000000000000000000000000000000000000000000000000000602082015250565b6000612d59602683612045565b9150612d6482612cfd565b604082019050919050565b60006020820190508181036000830152612d8881612d4c565b9050919050565b7f4552433732313a206f70657261746f7220717565727920666f72206e6f6e657860008201527f697374656e7420746f6b656e0000000000000000000000000000000000000000602082015250565b6000612deb602c83612045565b9150612df682612d8f565b604082019050919050565b60006020820190508181036000830152612e1a81612dde565b9050919050565b7f4552433732313a207472616e73666572206f6620746f6b656e2074686174206960008201527f73206e6f74206f776e0000000000000000000000000000000000000000000000602082015250565b6000612e7d602983612045565b9150612e8882612e21565b604082019050919050565b60006020820190508181036000830152612eac81612e70565b9050919050565b7f4552433732313a207472616e7366657220746f20746865207a65726f2061646460008201527f7265737300000000000000000000000000000000000000000000000000000000602082015250565b6000612f0f602483612045565b9150612f1a82612eb3565b604082019050919050565b60006020820190508181036000830152612f3e81612f02565b9050919050565b6000612f50826120f5565b9150612f5b836120f5565b925082821015612f6e57612f6d612c78565b5b828203905092915050565b7f4552433732313a207472616e7366657220746f206e6f6e20455243373231526560008201527f63656976657220696d706c656d656e7465720000000000000000000000000000602082015250565b6000612fd5603283612045565b9150612fe082612f79565b604082019050919050565b6000602082019050818103600083015261300481612fc8565b9050919050565b7f4552433732313a206d696e7420746f20746865207a65726f2061646472657373600082015250565b6000613041602083612045565b915061304c8261300b565b602082019050919050565b6000602082019050818103600083015261307081613034565b9050919050565b7f4552433732313a20746f6b656e20616c7265616479206d696e74656400000000600082015250565b60006130ad601c83612045565b91506130b882613077565b602082019050919050565b600060208201905081810360008301526130dc816130a0565b9050919050565b600081519050919050565b600082825260208201905092915050565b600061310a826130e3565b61311481856130ee565b9350613124818560208601612056565b61312d81612089565b840191505092915050565b600060808201905061314d600083018761218a565b61315a602083018661218a565b6131676040830185612220565b818103606083015261317981846130ff565b905095945050505050565b60008151905061319381611fab565b92915050565b6000602082840312156131af576131ae611f75565b5b60006131bd84828501613184565b91505092915050565b7f4e487b7100000000000000000000000000000000000000000000000000000000600052603160045260246000fdfea264697066735822122097180a4e1bb6dd60c59eb67dbb766ba00c7223d76cda8989e16ab5b00890b89d64736f6c634300080a0033",
  "linkReferences": {},
  "deployedLinkReferences": {}
}