{
  "_format": "hh-sol-artifact-1",
  "contractName": "GatewayERC721",
  "sourceName": "contracts/ethereum/gatewayERC721/GatewayERC721.sol",
  "abi": [
    {
      "inputs": [
        {
          "internalType": "address",
          "name": "_starknetCore",
          "type": "address"
        }
      ],
      "stateMutability": "nonpayable",
      "type": "constructor"
    },
    {
      "inputs": [
        {
          "internalType": "contract IERC721",
          "name": "_l1TokenContract",
          "type": "address"
        },
        {
          "internalType": "uint256",
          "name": "_l2TokenContract",
          "type": "uint256"
        },
        {
          "internalType": "uint256",
          "name": "_tokenId",
          "type": "uint256"
        }
      ],
      "name": "bridgeFromStarknet",
      "outputs": [],
      "stateMutability": "nonpayable",
      "type": "function"
    },
    {
      "inputs": [
        {
          "internalType": "contract IERC721",
          "name": "_l1TokenContract",
          "type": "address"
        },
        {
          "internalType": "uint256",
          "name": "_l2TokenContract",
          "type": "uint256"
        },
        {
          "internalType": "uint256",
          "name": "_tokenId",
          "type": "uint256"
        },
        {
          "internalType": "uint256",
          "name": "_account",
          "type": "uint256"
        }
      ],
      "name": "bridgeToStarknet",
      "outputs": [],
      "stateMutability": "nonpayable",
      "type": "function"
    },
    {
      "inputs": [],
      "name": "endpointGateway",
      "outputs": [
        {
          "internalType": "uint256",
          "name": "",
          "type": "uint256"
        }
      ],
      "stateMutability": "view",
      "type": "function"
    },
    {
      "inputs": [],
      "name": "initialEndpointGatewaySetter",
      "outputs": [
        {
          "internalType": "address",
          "name": "",
          "type": "address"
        }
      ],
      "stateMutability": "view",
      "type": "function"
    },
    {
      "inputs": [
        {
          "internalType": "uint256",
          "name": "_endpointGateway",
          "type": "uint256"
        }
      ],
      "name": "setEndpointGateway",
      "outputs": [],
      "stateMutability": "nonpayable",
      "type": "function"
    },
    {
      "inputs": [],
      "name": "starknetCore",
      "outputs": [
        {
          "internalType": "contract IStarknetCore",
          "name": "",
          "type": "address"
        }
      ],
      "stateMutability": "view",
      "type": "function"
    }
  ],
  "bytecode": "0x60806040523480156200001157600080fd5b5060405162000f5438038062000f5483398181016040528101906200003791906200019c565b600073ffffffffffffffffffffffffffffffffffffffff168173ffffffffffffffffffffffffffffffffffffffff161415620000aa576040517f08c379a0000000000000000000000000000000000000000000000000000000008152600401620000a19062000255565b60405180910390fd5b80600260006101000a81548173ffffffffffffffffffffffffffffffffffffffff021916908373ffffffffffffffffffffffffffffffffffffffff160217905550336000806101000a81548173ffffffffffffffffffffffffffffffffffffffff021916908373ffffffffffffffffffffffffffffffffffffffff1602179055505062000277565b600080fd5b600073ffffffffffffffffffffffffffffffffffffffff82169050919050565b6000620001648262000137565b9050919050565b620001768162000157565b81146200018257600080fd5b50565b60008151905062000196816200016b565b92915050565b600060208284031215620001b557620001b462000132565b5b6000620001c58482850162000185565b91505092915050565b600082825260208201905092915050565b7f476174657761792f696e76616c69642d737461726b6e65742d636f72652d616460008201527f6472657373000000000000000000000000000000000000000000000000000000602082015250565b60006200023d602583620001ce565b91506200024a82620001df565b604082019050919050565b6000602082019050818103600083015262000270816200022e565b9050919050565b610ccd80620002876000396000f3fe608060405234801561001057600080fd5b50600436106100625760003560e01c806339e730ab1461006757806341b3a0a11461008557806366fbae52146100a35780636d54e972146100bf578063aa5afdc4146100db578063c5cf2d5e146100f7575b600080fd5b61006f610115565b60405161007c919061077a565b60405180910390f35b61008d61013b565b60405161009a91906107ae565b60405180910390f35b6100bd60048036038101906100b8919061084a565b610141565b005b6100d960048036038101906100d4919061089d565b610391565b005b6100f560048036038101906100f09190610904565b6105da565b005b6100ff6106b7565b60405161010c9190610940565b60405180910390f35b600260009054906101000a900473ffffffffffffffffffffffffffffffffffffffff1681565b60015481565b6000600567ffffffffffffffff81111561015e5761015d61095b565b5b60405190808252806020026020018201604052801561018c5781602001602082028036833780820191505090505b509050600060015414156101d5576040517f08c379a00000000000000000000000000000000000000000000000000000000081526004016101cc906109e7565b60405180910390fd5b6001816000815181106101eb576101ea610a07565b5b602002602001018181525050610200336106db565b8160018151811061021457610213610a07565b5b602002602001018181525050610229846106db565b8160028151811061023d5761023c610a07565b5b602002602001018181525050828160038151811061025e5761025d610a07565b5b602002602001018181525050818160048151811061027f5761027e610a07565b5b602002602001018181525050600260009054906101000a900473ffffffffffffffffffffffffffffffffffffffff1673ffffffffffffffffffffffffffffffffffffffff16632c9dd5c0600154836040518363ffffffff1660e01b81526004016102ea929190610af4565b600060405180830381600087803b15801561030457600080fd5b505af1158015610318573d6000803e3d6000fd5b505050508373ffffffffffffffffffffffffffffffffffffffff166323b872dd3033856040518463ffffffff1660e01b815260040161035993929190610b24565b600060405180830381600087803b15801561037357600080fd5b505af1158015610387573d6000803e3d6000fd5b5050505050505050565b6000600467ffffffffffffffff8111156103ae576103ad61095b565b5b6040519080825280602002602001820160405280156103dc5781602001602082028036833780820191505090505b50905060006001541415610425576040517f08c379a000000000000000000000000000000000000000000000000000000000815260040161041c906109e7565b60405180910390fd5b8473ffffffffffffffffffffffffffffffffffffffff166323b872dd3330866040518463ffffffff1660e01b815260040161046293929190610b24565b600060405180830381600087803b15801561047c57600080fd5b505af1158015610490573d6000803e3d6000fd5b5050505081816000815181106104a9576104a8610a07565b5b6020026020010181815250506104be856106db565b816001815181106104d2576104d1610a07565b5b60200260200101818152505083816002815181106104f3576104f2610a07565b5b602002602001018181525050828160038151811061051457610513610a07565b5b602002602001018181525050600260009054906101000a900473ffffffffffffffffffffffffffffffffffffffff1673ffffffffffffffffffffffffffffffffffffffff16633e3aa6c56001547f03d7e9aabaee46b2e84062eb3bca33a0c08e1142b329c095d47ec3d6af1adbc6846040518463ffffffff1660e01b81526004016105a193929190610b5b565b600060405180830381600087803b1580156105bb57600080fd5b505af11580156105cf573d6000803e3d6000fd5b505050505050505050565b60008054906101000a900473ffffffffffffffffffffffffffffffffffffffff1673ffffffffffffffffffffffffffffffffffffffff163373ffffffffffffffffffffffffffffffffffffffff1614610668576040517f08c379a000000000000000000000000000000000000000000000000000000000815260040161065f90610be5565b60405180910390fd5b6000600154146106ad576040517f08c379a00000000000000000000000000000000000000000000000000000000081526004016106a490610c77565b60405180910390fd5b8060018190555050565b60008054906101000a900473ffffffffffffffffffffffffffffffffffffffff1681565b60008173ffffffffffffffffffffffffffffffffffffffff169050919050565b600073ffffffffffffffffffffffffffffffffffffffff82169050919050565b6000819050919050565b600061074061073b610736846106fb565b61071b565b6106fb565b9050919050565b600061075282610725565b9050919050565b600061076482610747565b9050919050565b61077481610759565b82525050565b600060208201905061078f600083018461076b565b92915050565b6000819050919050565b6107a881610795565b82525050565b60006020820190506107c3600083018461079f565b92915050565b600080fd5b60006107d9826106fb565b9050919050565b60006107eb826107ce565b9050919050565b6107fb816107e0565b811461080657600080fd5b50565b600081359050610818816107f2565b92915050565b61082781610795565b811461083257600080fd5b50565b6000813590506108448161081e565b92915050565b600080600060608486031215610863576108626107c9565b5b600061087186828701610809565b935050602061088286828701610835565b925050604061089386828701610835565b9150509250925092565b600080600080608085870312156108b7576108b66107c9565b5b60006108c587828801610809565b94505060206108d687828801610835565b93505060406108e787828801610835565b92505060606108f887828801610835565b91505092959194509250565b60006020828403121561091a576109196107c9565b5b600061092884828501610835565b91505092915050565b61093a816107ce565b82525050565b60006020820190506109556000830184610931565b92915050565b7f4e487b7100000000000000000000000000000000000000000000000000000000600052604160045260246000fd5b600082825260208201905092915050565b7f4761746577617920756e73657400000000000000000000000000000000000000600082015250565b60006109d1600d8361098a565b91506109dc8261099b565b602082019050919050565b60006020820190508181036000830152610a00816109c4565b9050919050565b7f4e487b7100000000000000000000000000000000000000000000000000000000600052603260045260246000fd5b600081519050919050565b600082825260208201905092915050565b6000819050602082019050919050565b610a6b81610795565b82525050565b6000610a7d8383610a62565b60208301905092915050565b6000602082019050919050565b6000610aa182610a36565b610aab8185610a41565b9350610ab683610a52565b8060005b83811015610ae7578151610ace8882610a71565b9750610ad983610a89565b925050600181019050610aba565b5085935050505092915050565b6000604082019050610b09600083018561079f565b8181036020830152610b1b8184610a96565b90509392505050565b6000606082019050610b396000830186610931565b610b466020830185610931565b610b53604083018461079f565b949350505050565b6000606082019050610b70600083018661079f565b610b7d602083018561079f565b8181036040830152610b8f8184610a96565b9050949350505050565b7f476174657761792f756e617574686f72697a6564000000000000000000000000600082015250565b6000610bcf60148361098a565b9150610bda82610b99565b602082019050919050565b60006020820190508181036000830152610bfe81610bc2565b9050919050565b7f476174657761792f656e64706f696e742d676174657761792d616c726561647960008201527f2d73657400000000000000000000000000000000000000000000000000000000602082015250565b6000610c6160248361098a565b9150610c6c82610c05565b604082019050919050565b60006020820190508181036000830152610c9081610c54565b905091905056fea264697066735822122023ae57bca855a72783497f81864acff5c1c482478968424bc83a9f1956269fc264736f6c634300080a0033",
  "linkReferences": {},
  "deployedLinkReferences": {}
}